{
  "contractName": "Election",
  "abi": [
    {
      "inputs": [],
      "stateMutability": "nonpayable",
      "type": "constructor"
    },
    {
      "anonymous": false,
      "inputs": [
        {
          "indexed": true,
          "internalType": "uint256",
          "name": "_candidateId",
          "type": "uint256"
        }
      ],
      "name": "Voted",
      "type": "event"
    },
    {
      "inputs": [],
      "name": "candidatesCount",
      "outputs": [
        {
          "internalType": "uint256",
          "name": "",
          "type": "uint256"
        }
      ],
      "stateMutability": "view",
      "type": "function",
      "constant": true
    },
    {
      "inputs": [],
      "name": "electionState",
      "outputs": [
        {
          "internalType": "enum Election.State",
          "name": "",
          "type": "uint8"
        }
      ],
      "stateMutability": "view",
      "type": "function",
      "constant": true
    },
    {
      "inputs": [],
      "name": "owner",
      "outputs": [
        {
          "internalType": "address",
          "name": "",
          "type": "address"
        }
      ],
      "stateMutability": "view",
      "type": "function",
      "constant": true
    },
    {
      "inputs": [],
      "name": "votersCount",
      "outputs": [
        {
          "internalType": "uint256",
          "name": "",
          "type": "uint256"
        }
      ],
      "stateMutability": "view",
      "type": "function",
      "constant": true
    },
    {
      "inputs": [],
      "name": "startElection",
      "outputs": [],
      "stateMutability": "nonpayable",
      "type": "function"
    },
    {
      "inputs": [],
      "name": "endElection",
      "outputs": [],
      "stateMutability": "nonpayable",
      "type": "function"
    },
    {
      "inputs": [
        {
          "internalType": "string",
          "name": "_name",
          "type": "string"
        }
      ],
      "name": "addCandidate",
      "outputs": [],
      "stateMutability": "nonpayable",
      "type": "function"
    },
    {
      "inputs": [
        {
          "internalType": "address",
          "name": "_voter",
          "type": "address"
        }
      ],
      "name": "addVoter",
      "outputs": [],
      "stateMutability": "nonpayable",
      "type": "function"
    },
    {
      "inputs": [
        {
          "internalType": "address",
          "name": "_current",
          "type": "address"
        }
      ],
      "name": "getRole",
      "outputs": [
        {
          "internalType": "uint256",
          "name": "",
          "type": "uint256"
        }
      ],
      "stateMutability": "view",
      "type": "function",
      "constant": true
    },
    {
      "inputs": [
        {
          "internalType": "uint256",
          "name": "_candidateId",
          "type": "uint256"
        }
      ],
      "name": "vote",
      "outputs": [],
      "stateMutability": "nonpayable",
      "type": "function"
    },
    {
      "inputs": [
        {
          "internalType": "address",
          "name": "add",
          "type": "address"
        }
      ],
      "name": "getIsVoted",
      "outputs": [
        {
          "internalType": "bool",
          "name": "",
          "type": "bool"
        }
      ],
      "stateMutability": "view",
      "type": "function",
      "constant": true
    },
    {
      "inputs": [
        {
          "internalType": "uint256",
          "name": "_candidateId",
          "type": "uint256"
        }
      ],
      "name": "getCandidateDetails",
      "outputs": [
        {
          "internalType": "string",
          "name": "",
          "type": "string"
        },
        {
          "internalType": "uint256",
          "name": "",
          "type": "uint256"
        }
      ],
      "stateMutability": "view",
      "type": "function",
      "constant": true
    }
  ],
  "bytecode": "0x6080604052600060045560006005553480156200001b57600080fd5b50336000806101000a81548173ffffffffffffffffffffffffffffffffffffffff021916908373ffffffffffffffffffffffffffffffffffffffff16021790555060008060146101000a81548160ff02191690836002811115620000845762000083620003a7565b5b0217905550620000cf6040518060400160405280600f81526020017f43616e646964617465204b756d617200000000000000000000000000000000008152506200016160201b60201c565b620001156040518060400160405280601081526020017f43616e6469646174652050616e646579000000000000000000000000000000008152506200016160201b60201c565b6200015b6040518060400160405280600e81526020017f43616e646964617465204b68616e0000000000000000000000000000000000008152506200016160201b60201c565b620005b5565b3373ffffffffffffffffffffffffffffffffffffffff1660008054906101000a900473ffffffffffffffffffffffffffffffffffffffff1673ffffffffffffffffffffffffffffffffffffffff1614620001f2576040517f08c379a0000000000000000000000000000000000000000000000000000000008152600401620001e99062000437565b60405180910390fd5b60006002811115620002095762000208620003a7565b5b600060149054906101000a900460ff1660028111156200022e576200022d620003a7565b5b1462000271576040517f08c379a00000000000000000000000000000000000000000000000000000000081526004016200026890620004a9565b60405180910390fd5b604051806060016040528060045481526020018281526020016000815250600160006004548152602001908152602001600020600082015181600001556020820151816001019080519060200190620002cc929190620002f7565b506040820151816002015590505060046000815480929190620002ef9062000504565b919050555050565b828054620003059062000580565b90600052602060002090601f01602090048101928262000329576000855562000375565b82601f106200034457805160ff191683800117855562000375565b8280016001018555821562000375579182015b828111156200037457825182559160200191906001019062000357565b5b50905062000384919062000388565b5090565b5b80821115620003a357600081600090555060010162000389565b5090565b7f4e487b7100000000000000000000000000000000000000000000000000000000600052602160045260246000fd5b600082825260208201905092915050565b7f4f6e6c79206f776e65722063616e206164642063616e64696461746573000000600082015250565b60006200041f601d83620003d6565b91506200042c82620003e7565b602082019050919050565b60006020820190508181036000830152620004528162000410565b9050919050565b7f456c656374696f6e2068617320616c7265616479207374617274656400000000600082015250565b600062000491601c83620003d6565b91506200049e8262000459565b602082019050919050565b60006020820190508181036000830152620004c48162000482565b9050919050565b7f4e487b7100000000000000000000000000000000000000000000000000000000600052601160045260246000fd5b6000819050919050565b60006200051182620004fa565b91507fffffffffffffffffffffffffffffffffffffffffffffffffffffffffffffffff8203620005465762000545620004cb565b5b600182019050919050565b7f4e487b7100000000000000000000000000000000000000000000000000000000600052602260045260246000fd5b600060028204905060018216806200059957607f821691505b602082108103620005af57620005ae62000551565b5b50919050565b61153980620005c56000396000f3fe608060405234801561001057600080fd5b50600436106100b45760003560e01c806359f784681161007157806359f784681461018e57806362d73eb8146101985780638da5cb5b146101a257806398c07938146101c0578063ebff1439146101de578063f4ab9adf1461020e576100b4565b80630121b93f146100b95780632280043d146100d557806327f9fd50146100f35780632d35a8a2146101245780634427673314610142578063462e91ec14610172575b600080fd5b6100d360048036038101906100ce9190610c8b565b61022a565b005b6100dd6104be565b6040516100ea9190610d2f565b60405180910390f35b61010d60048036038101906101089190610c8b565b6104d1565b60405161011b929190610df2565b60405180910390f35b61012c6105e7565b6040516101399190610e22565b60405180910390f35b61015c60048036038101906101579190610e9b565b6105ed565b6040516101699190610e22565b60405180910390f35b61018c60048036038101906101879190610ffd565b6106b0565b005b610196610836565b005b6101a06108fb565b005b6101aa6109c0565b6040516101b79190611055565b60405180910390f35b6101c86109e4565b6040516101d59190610e22565b60405180910390f35b6101f860048036038101906101f39190610e9b565b6109ea565b604051610205919061108b565b60405180910390f35b61022860048036038101906102239190610e9b565b610a40565b005b6001600281111561023e5761023d610cb8565b5b600060149054906101000a900460ff1660028111156102605761025f610cb8565b5b146102a0576040517f08c379a0000000000000000000000000000000000000000000000000000000008152600401610297906110f2565b60405180910390fd5b600360003373ffffffffffffffffffffffffffffffffffffffff1673ffffffffffffffffffffffffffffffffffffffff16815260200190815260200160002060009054906101000a900460ff1661032c576040517f08c379a00000000000000000000000000000000000000000000000000000000081526004016103239061115e565b60405180910390fd5b600260003373ffffffffffffffffffffffffffffffffffffffff1673ffffffffffffffffffffffffffffffffffffffff16815260200190815260200160002060009054906101000a900460ff16156103b9576040517f08c379a00000000000000000000000000000000000000000000000000000000081526004016103b0906111ca565b60405180910390fd5b600081101580156103cb575060045481105b61040a576040517f08c379a000000000000000000000000000000000000000000000000000000000815260040161040190611236565b60405180910390fd5b60016000828152602001908152602001600020600201600081548092919061043190611285565b91905055506001600260003373ffffffffffffffffffffffffffffffffffffffff1673ffffffffffffffffffffffffffffffffffffffff16815260200190815260200160002060006101000a81548160ff021916908315150217905550807f7f511e347bf51eed3be100b3194247d5207f05f3b33de7d31e3e8ee73199a04960405160405180910390a250565b600060149054906101000a900460ff1681565b606060008083101580156104e6575060045483105b610525576040517f08c379a000000000000000000000000000000000000000000000000000000000815260040161051c90611236565b60405180910390fd5b60016000848152602001908152602001600020600101600160008581526020019081526020016000206002015481805461055e906112fc565b80601f016020809104026020016040519081016040528092919081815260200182805461058a906112fc565b80156105d75780601f106105ac576101008083540402835291602001916105d7565b820191906000526020600020905b8154815290600101906020018083116105ba57829003601f168201915b5050505050915091509150915091565b60045481565b60008173ffffffffffffffffffffffffffffffffffffffff1660008054906101000a900473ffffffffffffffffffffffffffffffffffffffff1673ffffffffffffffffffffffffffffffffffffffff160361064b57600190506106ab565b600360008373ffffffffffffffffffffffffffffffffffffffff1673ffffffffffffffffffffffffffffffffffffffff16815260200190815260200160002060009054906101000a900460ff16156106a657600290506106ab565b600390505b919050565b3373ffffffffffffffffffffffffffffffffffffffff1660008054906101000a900473ffffffffffffffffffffffffffffffffffffffff1673ffffffffffffffffffffffffffffffffffffffff161461073e576040517f08c379a000000000000000000000000000000000000000000000000000000000815260040161073590611379565b60405180910390fd5b6000600281111561075257610751610cb8565b5b600060149054906101000a900460ff16600281111561077457610773610cb8565b5b146107b4576040517f08c379a00000000000000000000000000000000000000000000000000000000081526004016107ab906113e5565b60405180910390fd5b60405180606001604052806004548152602001828152602001600081525060016000600454815260200190815260200160002060008201518160000155602082015181600101908051906020019061080d929190610b9e565b50604082015181600201559050506004600081548092919061082e90611285565b919050555050565b60008054906101000a900473ffffffffffffffffffffffffffffffffffffffff1673ffffffffffffffffffffffffffffffffffffffff163373ffffffffffffffffffffffffffffffffffffffff161461088e57600080fd5b600160028111156108a2576108a1610cb8565b5b600060149054906101000a900460ff1660028111156108c4576108c3610cb8565b5b146108ce57600080fd5b6002600060146101000a81548160ff021916908360028111156108f4576108f3610cb8565b5b0217905550565b60008054906101000a900473ffffffffffffffffffffffffffffffffffffffff1673ffffffffffffffffffffffffffffffffffffffff163373ffffffffffffffffffffffffffffffffffffffff161461095357600080fd5b6000600281111561096757610966610cb8565b5b600060149054906101000a900460ff16600281111561098957610988610cb8565b5b1461099357600080fd5b6001600060146101000a81548160ff021916908360028111156109b9576109b8610cb8565b5b0217905550565b60008054906101000a900473ffffffffffffffffffffffffffffffffffffffff1681565b60055481565b6000600260008373ffffffffffffffffffffffffffffffffffffffff1673ffffffffffffffffffffffffffffffffffffffff16815260200190815260200160002060009054906101000a900460ff169050919050565b600360008273ffffffffffffffffffffffffffffffffffffffff1673ffffffffffffffffffffffffffffffffffffffff16815260200190815260200160002060009054906101000a900460ff1615610acd576040517f08c379a0000000000000000000000000000000000000000000000000000000008152600401610ac490611451565b60405180910390fd5b60006002811115610ae157610ae0610cb8565b5b600060149054906101000a900460ff166002811115610b0357610b02610cb8565b5b14610b43576040517f08c379a0000000000000000000000000000000000000000000000000000000008152600401610b3a906114e3565b60405180910390fd5b6001600360008373ffffffffffffffffffffffffffffffffffffffff1673ffffffffffffffffffffffffffffffffffffffff16815260200190815260200160002060006101000a81548160ff02191690831515021790555050565b828054610baa906112fc565b90600052602060002090601f016020900481019282610bcc5760008555610c13565b82601f10610be557805160ff1916838001178555610c13565b82800160010185558215610c13579182015b82811115610c12578251825591602001919060010190610bf7565b5b509050610c209190610c24565b5090565b5b80821115610c3d576000816000905550600101610c25565b5090565b6000604051905090565b600080fd5b600080fd5b6000819050919050565b610c6881610c55565b8114610c7357600080fd5b50565b600081359050610c8581610c5f565b92915050565b600060208284031215610ca157610ca0610c4b565b5b6000610caf84828501610c76565b91505092915050565b7f4e487b7100000000000000000000000000000000000000000000000000000000600052602160045260246000fd5b60038110610cf857610cf7610cb8565b5b50565b6000819050610d0982610ce7565b919050565b6000610d1982610cfb565b9050919050565b610d2981610d0e565b82525050565b6000602082019050610d446000830184610d20565b92915050565b600081519050919050565b600082825260208201905092915050565b60005b83811015610d84578082015181840152602081019050610d69565b83811115610d93576000848401525b50505050565b6000601f19601f8301169050919050565b6000610db582610d4a565b610dbf8185610d55565b9350610dcf818560208601610d66565b610dd881610d99565b840191505092915050565b610dec81610c55565b82525050565b60006040820190508181036000830152610e0c8185610daa565b9050610e1b6020830184610de3565b9392505050565b6000602082019050610e376000830184610de3565b92915050565b600073ffffffffffffffffffffffffffffffffffffffff82169050919050565b6000610e6882610e3d565b9050919050565b610e7881610e5d565b8114610e8357600080fd5b50565b600081359050610e9581610e6f565b92915050565b600060208284031215610eb157610eb0610c4b565b5b6000610ebf84828501610e86565b91505092915050565b600080fd5b600080fd5b7f4e487b7100000000000000000000000000000000000000000000000000000000600052604160045260246000fd5b610f0a82610d99565b810181811067ffffffffffffffff82111715610f2957610f28610ed2565b5b80604052505050565b6000610f3c610c41565b9050610f488282610f01565b919050565b600067ffffffffffffffff821115610f6857610f67610ed2565b5b610f7182610d99565b9050602081019050919050565b82818337600083830152505050565b6000610fa0610f9b84610f4d565b610f32565b905082815260208101848484011115610fbc57610fbb610ecd565b5b610fc7848285610f7e565b509392505050565b600082601f830112610fe457610fe3610ec8565b5b8135610ff4848260208601610f8d565b91505092915050565b60006020828403121561101357611012610c4b565b5b600082013567ffffffffffffffff81111561103157611030610c50565b5b61103d84828501610fcf565b91505092915050565b61104f81610e5d565b82525050565b600060208201905061106a6000830184611046565b92915050565b60008115159050919050565b61108581611070565b82525050565b60006020820190506110a0600083018461107c565b92915050565b7f456c656374696f6e206973206e6f7420696e2070726f67726573730000000000600082015250565b60006110dc601b83610d55565b91506110e7826110a6565b602082019050919050565b6000602082019050818103600083015261110b816110cf565b9050919050565b7f4e6f6e20617574686f726973656420757365722063616e6e6f7420766f746500600082015250565b6000611148601f83610d55565b915061115382611112565b602082019050919050565b600060208201905081810360008301526111778161113b565b9050919050565b7f596f75206861766520616c726561647920766f74656400000000000000000000600082015250565b60006111b4601683610d55565b91506111bf8261117e565b602082019050919050565b600060208201905081810360008301526111e3816111a7565b9050919050565b7f496e76616c69642063616e646964617465204944000000000000000000000000600082015250565b6000611220601483610d55565b915061122b826111ea565b602082019050919050565b6000602082019050818103600083015261124f81611213565b9050919050565b7f4e487b7100000000000000000000000000000000000000000000000000000000600052601160045260246000fd5b600061129082610c55565b91507fffffffffffffffffffffffffffffffffffffffffffffffffffffffffffffffff82036112c2576112c1611256565b5b600182019050919050565b7f4e487b7100000000000000000000000000000000000000000000000000000000600052602260045260246000fd5b6000600282049050600182168061131457607f821691505b602082108103611327576113266112cd565b5b50919050565b7f4f6e6c79206f776e65722063616e206164642063616e64696461746573000000600082015250565b6000611363601d83610d55565b915061136e8261132d565b602082019050919050565b6000602082019050818103600083015261139281611356565b9050919050565b7f456c656374696f6e2068617320616c7265616479207374617274656400000000600082015250565b60006113cf601c83610d55565b91506113da82611399565b602082019050919050565b600060208201905081810360008301526113fe816113c2565b9050919050565b7f566f74657220616c726561647920616464656400000000000000000000000000600082015250565b600061143b601383610d55565b915061144682611405565b602082019050919050565b6000602082019050818103600083015261146a8161142e565b9050919050565b7f566f7465722063616e277420626520616464656420616674657220656c65637460008201527f696f6e2073746172746564000000000000000000000000000000000000000000602082015250565b60006114cd602b83610d55565b91506114d882611471565b604082019050919050565b600060208201905081810360008301526114fc816114c0565b905091905056fea2646970667358221220ef0f9876bcc1057e9ad438c526765e7ccfb64d20c17bd08ad648104a3b34917f64736f6c634300080e0033",
  "immutableReferences": {},
  "source": "// SPDX-License-Identifier: MIT\r\npragma solidity >=0.4.0 <0.9.0;\r\n\r\ncontract Election {\r\n    enum State {\r\n        NotStarted,\r\n        InProgress,\r\n        Ended\r\n    }\r\n\r\n    struct Candidate {\r\n        uint256 id;\r\n        string name;\r\n        uint256 voteCount;\r\n    }\r\n\r\n    address public owner;\r\n    State public electionState;\r\n\r\n    struct Voter {\r\n        uint256 id;\r\n        string name;\r\n    }\r\n\r\n    mapping(uint256 => Candidate) candidates;\r\n    mapping(address => bool) voted;\r\n\r\n    mapping(address => bool) isVoter;\r\n\r\n    uint256 public candidatesCount = 0;\r\n\r\n    uint256 public votersCount = 0;\r\n\r\n    constructor() {\r\n        owner = msg.sender;\r\n        electionState = State.NotStarted;\r\n        addCandidate(\"Candidate Kumar\");\r\n        addCandidate(\"Candidate Pandey\");\r\n        addCandidate(\"Candidate Khan\");\r\n    }\r\n\r\n    event Voted(uint256 indexed _candidateId);\r\n\r\n    function startElection() public {\r\n        require(msg.sender == owner);\r\n        require(electionState == State.NotStarted);\r\n        electionState = State.InProgress;\r\n    }\r\n\r\n    function endElection() public {\r\n        require(msg.sender == owner);\r\n        require(electionState == State.InProgress);\r\n        electionState = State.Ended;\r\n    }\r\n\r\n    function addCandidate(string memory _name) public {\r\n        require(owner == msg.sender, \"Only owner can add candidates\");\r\n        require(\r\n            electionState == State.NotStarted,\r\n            \"Election has already started\"\r\n        );\r\n\r\n        candidates[candidatesCount] = Candidate(candidatesCount, _name, 0);\r\n        candidatesCount++;\r\n    }\r\n\r\n    function addVoter(address _voter) public {\r\n        require(!isVoter[_voter], \"Voter already added\");\r\n        require(\r\n            electionState == State.NotStarted,\r\n            \"Voter can't be added after election started\"\r\n        );\r\n\r\n        isVoter[_voter] = true;\r\n    }\r\n\r\n    function getRole(address _current) public view returns (uint256) {\r\n        if (owner == _current) {\r\n            return 1;\r\n        } else if (isVoter[_current]) {\r\n            return 2;\r\n        } else {\r\n            return 3;\r\n        }\r\n    }\r\n\r\n    function vote(uint256 _candidateId) public {\r\n        require(\r\n            electionState == State.InProgress,\r\n            \"Election is not in progress\"\r\n        );\r\n        require(isVoter[msg.sender], \"Non authorised user cannot vote\");\r\n        require(!voted[msg.sender], \"You have already voted\");\r\n        require(\r\n            _candidateId >= 0 && _candidateId < candidatesCount,\r\n            \"Invalid candidate ID\"\r\n        );\r\n\r\n        candidates[_candidateId].voteCount++;\r\n        voted[msg.sender] = true;\r\n\r\n        emit Voted(_candidateId);\r\n    }\r\n    function getIsVoted(address add)\r\n        public\r\n        view\r\n        returns (bool)\r\n    {\r\n        return (\r\n            voted[add]\r\n        );\r\n    }\r\n    function getCandidateDetails(uint256 _candidateId)\r\n        public\r\n        view\r\n        returns (string memory, uint256)\r\n    {\r\n        require(\r\n            _candidateId >= 0 && _candidateId < candidatesCount,\r\n            \"Invalid candidate ID\"\r\n        );\r\n        return (\r\n            candidates[_candidateId].name,\r\n            candidates[_candidateId].voteCount\r\n        );\r\n    }\r\n}\r\n",
  "sourcePath": "D:\\Sanket\\test_voting\\voting-dapp-main\\contracts\\Voting.sol",
  "compiler": {
    "name": "solc",
    "version": "0.8.14+commit.80d49f37.Emscripten.clang"
  },
  "schemaVersion": "3.4.13",
  "updatedAt": "2023-04-15T15:40:11.611Z",
  "networkType": "ethereum",
  "devdoc": {
    "kind": "dev",
    "methods": {},
    "version": 1
  },
  "userdoc": {
    "kind": "user",
    "methods": {},
    "version": 1
  }
}